:100000000C9487030C94A4030C94A4030C94A403F1
:100010000C94A4030C94A4030C94A4030C94A403C4
:100020000C94A4030C94A4030C94A4030C94DC0D72
:100030000C94A4030C94A4030C94A4030C94A403A4
:100040000C94A4030C94A4030C94F70E0C941D0FB1
:100050000C94A4030C94A4030C94A4030C94A40384
:100060000C94A4030C94A4035265676973746572BD
:1000700020636F6E74656E747320656E64732E0DED
:100080000A000D0A000D0A0041565220636F6E6689
:10009000696775726174696F6E20726567697374E0
:1000A000657220636F6E74656E74733A0D0A0D0A83
:1000B000000D0A00553A20000D0A004F3A20000DAD
:1000C0000A00493A20000D0A000D0A003A20000DEE
:1000D0000A006C69676874207374726F626500202F
:1000E000207461736B3A20006E6575726F63616D89
:1000F000002020737562747970653A20004750497A
:100100004F763100646576696365747970653A206D
:1001100000456E64206F662073797374656D20737B
:10012000746174652E0D0A000D0A000D0A2020204E
:100130002053796E6368206C6967687420647572F7
:100140006174696F6E20287469636B73293A20208B
:10015000000D0A2020202053796E6368206C6967A7
:10016000687420706572696F6420287469636B73AA
:10017000293A2020006E6F0079657300202020202E
:10018000456E61626C65643F2020002020546173DD
:100190006B2D737065636966696320737461746540
:1001A0003A0D0A000D0A000D0A20202020202055BB
:1001B0007365722073746174652028686578293AC4
:1001C0002020000D0A202020204F757470757420A7
:1001D00073746174652028686578293A2020000DC1
:1001E0000A2020202020496E707574207374617479
:1001F000652028686578293A2020006E6F007965AF
:1002000073000D0A2020496E7075742070756C6C37
:100210002D7570207265736973746F72733F20203F
:1002200000202F2000202F200020204469676974BF
:10023000616C20492F4F732028496E7075742F4FC1
:1002400075747075742F557365722D636F6E666962
:1002500067293A2020000D0A002020436C6F636B51
:10026000207469636B7320706572207365636F6EB1
:10027000643A202000207469636B730D0A0020200B
:1002800054696D657374616D703A2020000D0A0029
:10029000656E61626C6564000D0A202044656275BC
:1002A0006767696E6720636F6D6D616E64733A2076
:1002B00020003230313631303330000D0A202046F4
:1002C00069726D776172652076657273696F6E3AD7
:1002D0002020006C69676874207374726F62650017
:1002E0000D0A2020507265636F6E666967757265CE
:1002F00064207461736B3A2020006E6575726F63C1
:10030000616D0020202020537562747970652F4341
:100310006F6E66696775726174696F6E3A2020004E
:100320004750494F76310020204465766963652047
:10033000747970653A20200053797374656D207369
:10034000746174652028616C6C2076616C756573CE
:1003500020696E206261736520313020756E6C6596
:100360007373206E6F746564293A0D0A0020202093
:100370002044444320203A20202864656275672980
:100380002044756D70204D435520636F6E6669671C
:1003900075726174696F6E207265676973746572D6
:1003A00020636F6E74656E74732E0D0A00436F6D5B
:1003B0006D616E64733A0D0A203F2C20484C50202A
:1003C000203A202048656C702073637265656E2E3C
:1003D0000D0A2020202049445120203A2020446545
:1003E00076696365206964656E74697479207175D6
:1003F0006572792E0D0A2020202051525920203A72
:10040000202051756572792073797374656D20733E
:10041000746174652E0D0A20202020494E49202049
:100420003A20205265696E697469616C697A652049
:1004300028636C6F636B20616E64206576656E74F3
:100440002072657365742C2070696E7320746F2040
:1004500064656661756C7420636F6E666967292ECA
:100460000D0A202045434820312F303A2020537474
:100470006172742F73746F70206563686F696E6743
:100480002074797065642063686172616374657259
:1004900073206261636B20746F2074686520686FDD
:1004A00073742E0D0A2020202057524F206E3A20C0
:1004B0002053657420746865206F7574707574209E
:1004C00062616E6B20746F20646174612076616C70
:1004D0007565206E2E0D0A20202020575255206E63
:1004E0003A20205365742074686520757365722DF9
:1004F000636F6E666967757261626C652062616EBA
:100500006B206F75747075747320746F20646174E0
:10051000612076616C7565206E2E0D0A20202020EA
:1005200052444920203A2020526561642074686555
:10053000207374617465206F662074686520696E2D
:100540007075742062616E6B2E0D0A20202020527F
:10055000444F20203A202052656164207468652051
:100560007374617465206F6620746865206F75749C
:100570007075742062616E6B2E0D0A20202020524F
:10058000445520203A20205265616420746865201B
:100590007374617465206F66207468652075736577
:1005A000722D636F6E666967757261626C65206239
:1005B000616E6B2E0D0A202052455020312F303AAB
:1005C000202053746172742F73746F70206175747E
:1005D0006F6D61746963616C6C79207265706F72A4
:1005E00074696E67206368616E67657320696E2049
:1005F000492F4F206C696E65732E0D0A20205050D4
:100600005520312F303A2020456E61626C652F6491
:10061000697361626C6520696E7075742070696EB3
:100620002070756C6C2D7570207265736973746FB2
:1006300072732E0D0A202054534B20312F303A2054
:100640002053746172742F73746F70207468652006
:10065000646576696365277320707265636F6E6683
:10066000696775726564207461736B2E0D0A2020B2
:100670002020545050206E3A2020287461736B293A
:10068000205365742070756C736520706572696F96
:100690006420746F206E207469636B732E0D0A20C2
:1006A000202020545044206E3A2020287461736B1F
:1006B00029205365742070756C73652064757261B0
:1006C00074696F6E20746F206E207469636B732E73
:1006D0000D0A00222E205479706520223F22206FBF
:1006E000722022484C502220666F722068656C7020
:1006F0002E0D0A00556E7265636F676E697A6564C8
:1007000020636F6D6D616E643A2020220000112419
:100710001FBECFEFD8E0DEBFCDBF11E0A0E0B1E05B
:10072000EEEFF4E202C005900D92A833B107D9F7BD
:1007300024E0A8E3B1E001C01D92A639B207E1F7B9
:100740000E94550F0C947D120C9400000E94750DB0
:1007500081E00E94C80328EE33E040E050E060E012
:1007600074E284EF90E00E948F0D24E130E040E0DD
:1007700050E068E873E180E090E00E94060A81E0C2
:100780000E94620A8EEE9AE00E94110B0C942704DC
:1007900090E294B917B81AB8882329F09FE195B967
:1007A00018B890EE9BB98093380108958091380174
:1007B0000895AC0123B199B14115510561F0413063
:1007C0005105B1F425FB662760F970E0072E000C97
:1007D000880B990B0895892F829586958770622FD3
:1007E000660F660F660F682B70E080E090E008955A
:1007F00060E070E0CB0108959C01019761F4452B06
:10080000462B472B11F090E201C090E08091380117
:1008100081119F6195B9C9010C94D903009729F002
:10082000019731F481E090E0089588E090E0089528
:1008300080E090E0089510924402109243028823D1
:1008400029F081E08093440280934302089510923E
:1008500042021092410281E0809345020E941B04F3
:1008600020E032EC41E050E060E074E284EF90E0A0
:100870000C94180E10924202109241020895EEE379
:10088000F2E010821182128210923D02109239021F
:1008900010923A0210923B0210923C020895AF92DD
:1008A000BF92CF92DF92EF92FF920F931F93CF935D
:1008B000DF930E943F040091410210914202B12C4B
:1008C000C0E0D0E0E0E0F0E0AA24A394D8016D916C
:1008D0008D01662309F47CC0E230F10511F134F496
:1008E000309759F0E130F105A1F038C0E330F1055F
:1008F000E9F0E430F10509F131C0862F8F7D815494
:100900008A31F0F0613254F16F33E9F4BB24B394CF
:100910001AC0862F8F7D81548A3100F16132B4F084
:1009200012C080ED860F8A30A0F007C080ED860FE0
:100930008A30A0F0613284F006C061327CF003C0DE
:10094000E1E0F0E00BC0E5E0F0E008C0E2E0F0E05C
:1009500005C0E3E0F0E002C0E4E0F0E0E130F105E2
:1009600031F1E330F10509F0B1CFA0923D0280ED05
:10097000860FC82E880FDD08EE08FF082091390287
:1009800030913A0240913B0250913C02AAE0B0E023
:100990000E947E0FC60ED71EE81EF91EC0923902B5
:1009A000D0923A02E0923B02F0923C028FCF8FE964
:1009B000860F8A3108F46052C330D10534F4DE0169
:1009C000A25CBD4F6C93219681CFE5E0F0E07ECF35
:1009D000BB2061F00E943F0488E480933E028CE4D7
:1009E00080933F0280E5809340020EC0309739F03B
:1009F000239741F00E943F0482E090E007C080E02E
:100A000090E004C03597B1F381E090E0DF91CF91A1
:100A10001F910F91FF90EF90DF90CF90BF90AF901C
:100A200008958DEA93E00E94820B8DE693E00C948A
:100A3000820B0F931F93CF93DF9300D000D0CDB7DD
:100A4000DEB78A0169837A838B839C830E945B0B68
:100A500069817A818B819C81093011053CF49F93D7
:100A60008F937F936F9388E191E01AC00131110554
:100A70003CF49F938F937F936F938EE191E010C02E
:100A8000093111053CF49F938F937F936F9384E218
:100A900091E006C09F938F937F936F938AE291E0DA
:100AA0009F938F931F9284E18F9382E592E09F93AF
:100AB0008F930E94980F0FB6F894DEBF0FBECDBF84
:100AC0001092660282E592E00F900F900F900F90C7
:100AD000DF91CF911F910F910C94670B1F93CF93D0
:100AE000DF9384EF96E00E94820BC0E0D0E0E091BB
:100AF0004102F0914202EC0FFD1F10811123B9F069
:100B000080EE810F8F3510F4812F0DC08CE30E9491
:100B10007D0C612F110F770B880B990B48E050E08B
:100B20000E9419058EE30E947D0C2196E0CF83ED93
:100B300096E0DF91CF911F910C94820B4F925F92C0
:100B40006F927F928F929F92AF92BF92CF92DF92DD
:100B5000EF92FF92CF93DF93CDB7DEB72C970FB60E
:100B6000F894DEBF0FBECDBF80E090E00E94D903B5
:100B70002B013C0181E090E00E94D9034B015C0114
:100B800082E090E00E94D9036B017C010E94FC0A84
:100B9000AB01BC0188E393E049875A876B877C8768
:100BA0000E94820B87E293E00E94820B80E293E036
:100BB0000E94820B83E093E00E94820B8AEF92E016
:100BC0000E94820B80EE92E00E94820B83ED92E005
:100BD0000E94820B8BEB92E00E94820B82EB92E0F0
:100BE0000E94820B88E992E00E94820B80E992E0E9
:100BF0000E94820B8DE892E00E94820B8EE792E0C9
:100C00000E94820B49855A856B857C85CB01BA0190
:100C10000E94900C85E792E00E94820B89E592E0A9
:100C20000E94820B68EE73E080E090E00E94900CDE
:100C300086E592E00E94820B89E292E00E94820B9C
:100C400080E090E00E940E04BC01990F880B990B84
:100C50000E94900C85E292E00E94820B81E090E07D
:100C60000E940E04BC01990F880B990B0E94900CF6
:100C700081E292E00E94820B82E090E00E940E04EA
:100C8000BC01990F880B990B0E94900C82E092E0B6
:100C90000E94820B0E94D603811103C08BEF91E06A
:100CA00002C08EEF91E00E94820B8FED91E00E94D6
:100CB000820B80E090E00E940E04AC01C301B201FF
:100CC0000E94190583EC91E00E94820B81E090E084
:100CD0000E940E04AC01C501B4010E94190587EA07
:100CE00091E00E94820B82E090E00E940E04AC0131
:100CF000C701B6010E94190584EA91E00E94820BA7
:100D00001D821E821F82188619821A821B821C82F3
:100D1000BE016F5F7F4FCE0105960E94430A8BE8AC
:100D200091E00E94820B8CE791E00E94820B0E946E
:100D30007C0A811103C085E791E002C088E791E059
:100D40000E94820B81E591E00E94820B6D817E8181
:100D50008F8198850E94900C8BE291E00E94820B1B
:100D600069817A818B819C810E94900C88E291E05C
:100D70000E94820B81E191E00E94820B2C960FB6BB
:100D8000F894DEBF0FBECDBFDF91CF91FF90EF9003
:100D9000DF90CF90BF90AF909F908F907F906F909B
:100DA0005F904F9008954F925F926F927F928F92D3
:100DB0009F92AF92BF92CF92DF92EF92FF9280917B
:100DC0004302882309F492C080E090E00E94D90396
:100DD0002B013C0181E090E00E94D9034B015C01B2
:100DE00082E090E00E94D9036B017C018091440273
:100DF00081110DC080914E0290914F02A09150023E
:100E0000B0915102481659066A067B06C9F0409215
:100E10004E0250924F02609250027092510282EC48
:100E200090E00E94820B80E090E00E940E04AC01F2
:100E3000C301B2010E9419058FEB90E00E94820B62
:100E40008091440281110DC080914A0290914B0221
:100E5000A0914C02B0914D0288169906AA06BB06D5
:100E6000C9F080924A0290924B02A0924C02B0923A
:100E70004D028BEB90E00E94820B81E090E00E949B
:100E80000E04AC01C501B4010E94190588EB90E085
:100E90000E94820B8091440281110DC08091460214
:100EA00090914702A0914802B0914902C816D90614
:100EB000EA06FB06C9F0C0924602D0924702E092D1
:100EC0004802F092490284EB90E00E94820B82E09B
:100ED00090E00E940E04AC01C701B6010E94190502
:100EE00081EB90E00E94820B10924402FF90EF9001
:100EF000DF90CF90BF90AF909F908F907F906F903A
:100F00005F904F9008950F931F93CF93DF9309E362
:100F100011E0F801119282E0E933F807D9F78FB7B1
:100F2000F894E0E2F0E09081DF01A75CBE4F9C9373
:100F30003196E11591E0F907B1F78FBF88E890E0AD
:100F40000E94820BC0E0D0E0CE0183709927892BEC
:100F500019F480E20E947D0C80E20E947D0CF80171
:100F600081918F010E94320D2196CE018F709927B9
:100F7000892B21F485E890E00E94820BCE018F73CB
:100F80009927892B21F482E890E00E94820BC115F9
:100F9000F1E0DF07C9F688E690E0DF91CF911F917D
:100FA0000F910C94820BCF92DF92EF92FF920F93EE
:100FB0001F93CF93DF93CDB7DEB728970FB6F89482
:100FC000DEBF0FBECDBF80913E02883489F4809190
:100FD0003F028C3409F062C080914002803509F0F4
:100FE0005DC080913D02811159C00E941105DAC196
:100FF000893409F04DC080913F02843421F58091FD
:101000004002813509F04AC080913D02811146C0FD
:1010100084E091E00E94820B8DEF90E00E94820BB1
:1010200081EF90E00E94820B88EE90E00E94820B9C
:101030008FED90E00E94820B82ED90E00E94820B87
:101040008FEC90E05CC08E3449F580914002893489
:1010500029F580913D02811121C081E00E94C803E1
:101060000E94F00A24E130E040E050E068E873E1DB
:1010700080E090E00E94060A81E00E94620A04C0BB
:101080000197A105B10551F481E00E941B048AC1BA
:10109000813539F480913F028235A1F10E946E05BD
:1010A00081C18534D1F1823509F099C080913F0228
:1010B000853409F459C0843489F780913D02811147
:1010C000EDCF80914002893409F06AC080E090E061
:1010D0000E94D9036B017C0180E090E00E940E0425
:1010E0008C0189E40E947D0C8CEC90E00E94820BC4
:1010F000A801C701B6010E94190589EC90E00E9481
:10110000820B50C180914002893541F680913D02A9
:101110008111C4CF0E949E0545C180913F02833456
:1011200009F0BCCF80914002883409F0B7CF80919C
:101130003D02882309F4B2CF8091390290913A029E
:10114000A0913B02B0913C020097A105B10519F4B2
:101150001092450227C10197A105B10509F09ECF64
:1011600081E0809345021EC180914002803509F0E4
:1011700095CF80913D02882309F490CF8091390268
:1011800090913A02A0913B02B0913C020097A105D8
:10119000B10509F075CF109244021092430202C1CA
:1011A0008F3469F481E090E00E94D9036B017C01E7
:1011B00081E090E00E940E048C018FE493CF85358E
:1011C00009F06CCF82E090E00E94D9036B017C01B2
:1011D00082E090E00E940E048C0185E583CF873584
:1011E00049F580913F02823509F058CF80913D0248
:1011F000882309F453CF809140028F3459F44091F1
:10120000390250913A0260913B0270913C0281E0B8
:1012100090E00DC0853509F041CF409139025091E1
:101220003A0260913B0270913C0282E090E00E94A1
:10123000FC03B8C0803531F580913F02803509F05C
:101240002DCF80914002853509F028CF80913D0255
:10125000882309F423CF8091390290913A02A0911A
:101260003B02B0913C020097A105B10511F480E06A
:1012700006C00197A105B10509F010CF81E00E94D9
:10128000C80390C0843509F07AC080913F0283354D
:10129000F9F4809140028B3409F000CF80913D0237
:1012A000882309F4FBCE8091390290913A02A091F3
:1012B0003B02B0913C020097A105B10511F480E01A
:1012C0005BC00197A105B10509F0E8CE81E054C0EB
:1012D000803509F0E3CE80914002803521F5809180
:1012E0003D02882309F4DACE0E947C0A182F1D8261
:1012F0001E821F82188619821A821B821C82BE01DE
:101300006F5F7F4FCE0105960E94430A29813A8183
:101310004B815C816091390270913A0280913B026D
:1013200090913C0226C0843409F0B8CE80913D02F1
:10133000882309F4B3CE0E947C0A182F1D821E82D6
:101340001F82188619821A821B821C82BE016F5F5F
:101350007F4FCE0105960E94430A209139023091B9
:101360003A0240913B0250913C026D817E818F8117
:1013700098850E94060A812F0E94620A13C0843455
:1013800009F08CCE80913F02843409F087CE8091A1
:101390004002833409F082CE80913D0281117ECEDD
:1013A0000E94830728960FB6F894DEBF0FBECDBF0C
:1013B000DF91CF911F910F91FF90EF90DF90CF9031
:1013C00008950E941A0B9093420280934102009765
:1013D000E1F020914502222331F00E94670B86EC58
:1013E00090E00E94820B0E944F048130910519F415
:1013F0000E94D30704C0029711F40E946E050E9458
:10140000320B10924202109241020895CF92DF9265
:10141000EF92FF92CF93DF9300D000D0CDB7DEB72D
:101420006B017C0129833A834B835C830E94FC0A15
:101430006093690270936A0280936B0290936C02CE
:10144000C0920401D0920501E0920601F0920701DA
:1014500029813A814B815C81209300013093010105
:1014600040930201509303011092680210926702A8
:101470000F900F900F900F90DF91CF91FF90EF9012
:10148000DF90CF9008950F931F9300910401109166
:1014900005012091060130910701FC0100831183B1
:1014A000228333838091000190910101A091020178
:1014B000B0910301FB0180839183A283B3831F91C9
:1014C0000F910895CF93C82F882391F020910001A8
:1014D000309101014091020150910301609104019A
:1014E0007091050180910601909107010E94060A02
:1014F000C0936702CF9108958091670208950F937A
:101500001F9380916702882309F465C00E94080B2D
:10151000AB01BC01809168020091690210916A02DE
:1015200020916B0230916C028823E9F080910001D8
:1015300090910101A0910201B0910301800F911FD0
:10154000A21FB31F84179507A607B70708F043C06B
:101550001092680240E050E0BA0181E090E01F91F3
:101560000F910C94FC038091040190910501A091CE
:101570000601B0910701800F911FA21FB31F8417AE
:101580009507A607B70738F581E08093680241E028
:1015900050E060E070E081E090E00E94FC03409148
:1015A000690250916A0260916B0270916C028091A5
:1015B000040190910501A0910601B0910701840FEB
:1015C000951FA61FB71F8093690290936A02A0938C
:1015D0006B02B0936C021F910F9108950C947F0AD7
:1015E0008FB7F89410926F021092700210927102ED
:1015F000109272028FBF08952FB7F89460916F0216
:101600007091700280917102909172022FBF0895C3
:1016100060916F02709170028091710290917202DC
:1016200008959C019FB7F89430936E0220936D0249
:101630009FBF08952FB7F89480918D0290918E02EC
:1016400036E0880F991F3A95E1F78F569D4F4091EC
:101650008F02509190021416150614F080E090E06D
:101660002FBF08954FB7F89420918F0230919002C8
:1016700080918D0290918E021216130614F04FBFC6
:101680000895215031093093900220938F020196E2
:101690008770992790938E0280938D02F0CF9FB729
:1016A000F89481E02091870230918802232B09F47D
:1016B00080E09FBF0895CF93C8EC0E944F0B882312
:1016C00021F08C2F8A95F1F7F8CFCF9108951F93D1
:1016D000CF93DF93EC010E945B0B209779F01FB74B
:1016E000F894D0938802C0938702109286021092D9
:1016F0008502109284020E94F30E1FBFDF91CF91EA
:101700001F9108951F93CF93DF93EC010E945B0B11
:10171000209781F01FB7F894D0938802C093870276
:10172000109286021092850281E0809384020E94CA
:10173000F30E1FBFDF91CF911F91089580E090E0DD
:10174000FC0126E0EE0FFF1F2A95E1F7EF56FD4F53
:10175000108201968830910599F7109290021092AC
:101760008F0210928E0210928D0210928C021092B3
:101770008B0210928A0210928902109288021092B3
:1017800087021092860210928502109284021092B3
:101790008302089590919104992319F08A3019F4E5
:1017A00076C08A3019F08D3009F04EC090918302D6
:1017B0002091890230918A02992321F02115310567
:1017C00009F45FC02034310534F02FE330E030936A
:1017D0008A022093890220918B0230918C02F901B8
:1017E00046E0EE0FFF1F4A95E1F7EF56FD4F40919F
:1017F000890250918A02E40FF51F108240918F02F6
:10180000509190024730510574F42F5F3F4F27707D
:10181000332730938C0220938B024F5F5F4F50939E
:10182000900240938F02E0918B02F0918C0226E0AF
:10183000EE0FFF1F2A95E1F7EF56FD4F1082109231
:101840008A02109289021DC02091890230918A0279
:1018500020343105E4F4E0918B02F0918C0296E0A3
:10186000EE0FFF1F9A95E1F7A9014F565D4FE40F68
:10187000F51F80832F5F3F4F30938A0220938902A8
:1018800006C08D3021F481E0809391040895109278
:1018900091040895DC01E0918702F091880230976D
:1018A00011F1809184022091850230918602E20F2D
:1018B000F31F882311F0E49101C0E081E1110BC016
:1018C000109288021092870210928602109285026E
:1018D0001092840209C02F5F3F4F309386022093FD
:1018E000850281E002C0E0E080E0EC9308959FB7BC
:1018F000F894809383029FBF0895CF93DF931F9244
:10190000CDB7DEB789830E945B0BE3E7F2E0898104
:1019100080831182CF010F90DF91CF910C94670BE0
:10192000CF93DF9300D000D0CDB7DEB769837A8341
:101930008B839C830E945B0B9C819F938B818F93F5
:101940007A817F9369816F9380E391E09F938F9376
:101950001F9280E18F9383E792E09F938F930E9481
:10196000980F0FB6F894DEBF0FBECDBF83E792E0AD
:101970000F900F900F900F90DF91CF910C94670B09
:10198000CF93DF9300D000D0CDB7DEB769837A83E1
:101990008B839C830E945B0B9C819F938B818F9395
:1019A0007A817F9369816F9384E391E09F938F9312
:1019B0001F9280E18F9383E792E09F938F930E9421
:1019C000980F0FB6F894DEBF0FBECDBF83E792E04D
:1019D0000F900F900F900F90DF91CF910C94670BA9
:1019E000CF93DF9300D000D0CDB7DEB7AB01BC0101
:1019F00049835A836B837C830E945B0BE3E7F2E0AD
:101A00007C816B815A814981119282E0E338F80729
:101A1000D9F728E083E792E00E94520D83E792E035
:101A20000F900F900F900F90DF91CF910C94670B58
:101A3000CF93DF93EC010E945B0BE3E7F2E011929E
:101A400082E0E338F807D9F7AE0160E070E024E007
:101A500083E792E00E94520D83E792E0DF91CF91FD
:101A60000C94670BCF93DF931F92CDB7DEB78983BA
:101A70000E945B0BE3E7F2E08981119292E0E33888
:101A8000F907D9F7482F50E060E070E022E083E7E3
:101A900092E00E94520D83E792E00F90DF91CF9188
:101AA0000C94670BCF92DF92EF92FF922223C1F04A
:101AB0002150FC01E20FF11D6A017B013FE0C322CE
:101AC000DD24EE24FF24D601A85FBE4F3C91308375
:101AD00034E076956795579547953A95D1F7E6CFD7
:101AE000FF90EF90DF90CF900895F89415BE14B852
:101AF00017B81AB815B818B81BB820E030E0A9011B
:101B000060E070E0CB010E948F0D20E030E0A90181
:101B100060E070E0CB010E94180E78940895109256
:101B20006E0010926F0010927000E2E0E4BD15BCF0
:101B300010928000F8E0F093810010928200E09310
:101B4000B0001092B10010926F02109270021092C9
:101B500071021092720210926E0210926D022115A3
:101B600031054105510539F10E945C0F2115310500
:101B70004105510571F021503109410951092115E3
:101B8000310581E04807510520F02FEF3FEF40E09D
:101B900050E0BB27A52F942F832F8093890020939B
:101BA0008800109285001092840089E08093810063
:101BB00082E080936F0008951F920F920FB60F92EC
:101BC00011242F933F934F935F936F937F938F9342
:101BD0009F93AF93BF93EF93FF9380916F02909188
:101BE0007002A0917102B09172020196A11DB11D07
:101BF00080936F0290937002A0937102B09372026F
:101C0000E0916D02F0916E02309709F00995FF9115
:101C1000EF91BF91AF919F918F917F916F915F9164
:101C20004F913F912F910F900FBE0F901F901895DD
:101C30004F925F926F927F928F929F92AF92BF92DC
:101C4000CF92DF92EF92FF92CF93DF93CDB7DEB7C3
:101C500028970FB6F894DEBF0FBECDBF2B013C0115
:101C600049015A012115310541055105A1F4109290
:101C700092041092930410929404109295048FB7DA
:101C8000F89492E09093C0001092C10096E0909377
:101C9000C2008FBF8AC0E3E0220F331F441F551FCD
:101CA000EA95D1F70E945C0F69017A01232B242B5E
:101CB000252B89F081E0C81AD108E108F108C11488
:101CC00090E1D906E104F10430F0CC24CA947FE01D
:101CD000D72EE12CF12CD701C6010196A11DB11D13
:101CE00089839A83AB83BC839C01AD0163E0220F9F
:101CF000331F441F551F6A95D1F7C301B2010E94DB
:101D00005C0F2D833E834F8358872093920430933A
:101D1000930440939404509395049FEFC9169FE059
:101D2000D906E104F10479F1D701C6010296A11D9B
:101D3000B11D9C01AD0193E0220F331F441F551FBD
:101D40009A95D1F7C301B2010E945C0F4D805E806D
:101D50006F807884481859086A087B08821A930AA9
:101D6000A40AB50A84149504A604B70460F4209369
:101D70009204309393044093940450939504C98043
:101D8000DA80EB80FC80BFB6F8941092C100BB27CC
:101D9000AF2D9E2D8D2D8093C500C092C4000E9452
:101DA0009E0B88E98093C100BFBE28960FB6F894B9
:101DB000DEBF0FBECDBFDF91CF91FF90EF90DF90E0
:101DC000CF90BF90AF909F908F907F906F905F90DB
:101DD0004F900895609192047091930480919404BF
:101DE00090919504089588EB8093C10008951F9207
:101DF0000F920FB60F9211242F933F934F935F933F
:101E00006F937F938F939F93AF93BF93EF93FF93C2
:101E10008091C6000E94CA0BFF91EF91BF91AF91D4
:101E20009F918F917F916F915F914F913F912F91F2
:101E30000F900FBE0F901F9018951F920F920FB624
:101E40000F9211242F933F934F935F936F937F9340
:101E50008F939F93AF93BF93EF93FF93CF93DF93B2
:101E60001F92CDB7DEB71982CE0101960E944A0CAF
:101E7000882321F089818093C60003C088E980937C
:101E8000C1000F90DF91CF91FF91EF91BF91AF9182
:101E90009F918F917F916F915F914F913F912F9182
:101EA0000F900FBE0F901F9018950E94A6030E94DE
:101EB000E1090E94D306FBCFA1E21A2EAA1BBB1B8D
:101EC000FD010DC0AA1FBB1FEE1FFF1FA217B30706
:101ED000E407F50720F0A21BB30BE40BF50B661F1C
:101EE000771F881F991F1A9469F7609570958095E0
:101EF00090959B01AC01BD01CF0108950E94890F0F
:101F0000A59F900DB49F900DA49F800D911D11244D
:101F10000895A29FB001B39FC001A39F700D811DC2
:101F20001124911DB29F700D811D1124911D0895E2
:101F3000AEE0B0E0EEE9FFE00C9454120D891E898A
:101F40008F89988D26E02C831A83098397FF02C01E
:101F500080E090E801979E838D83AE01455E5F4FE0
:101F6000698D7A8DCE0101960E94C80F4D815E81E8
:101F700057FD0AC02F813885421753070CF49A0188
:101F8000F801E20FF31F10822E96E4E00C94701219
:101F9000ACE0B0E0EEECFFE00C9446127C016B018B
:101FA0008A01FC0117821682838181FFBDC1CE01A7
:101FB00001964C01F7019381F60193FD859193FF02
:101FC00081916F01882309F4ABC1853239F493FD07
:101FD000859193FF81916F01853229F4B70190E0DB
:101FE0000E94B011E7CF512C312C20E02032A0F418
:101FF0008B3269F030F4803259F0833269F4206119
:102000002CC08D3239F0803339F4216026C0226033
:10201000246023C0286021C027FD27C030ED380F81
:102020003A3078F426FF06C0FAE05F9E300D1124A6
:10203000532E13C08AE0389E300D1124332E2062B7
:102040000CC08E3221F426FD6BC1206406C08C3694
:1020500011F4206802C0883641F4F60193FD8591A1
:1020600093FF81916F018111C1CF982F9F7D95546E
:10207000933028F40C5F1F4FFFE3F9830DC08336C4
:1020800031F0833771F0833509F05BC022C0F8016D
:10209000808189830E5F1F4F44244394512C540147
:1020A00015C03801F2E06F0E711CF801A080B180FC
:1020B00026FF03C0652D70E002C06FEF7FEFC50102
:1020C0002C870E94A5112C0183012C852F77222EAD
:1020D00017C03801F2E06F0E711CF801A080B180CA
:1020E00026FF03C0652D70E002C06FEF7FEFC501D2
:1020F0002C870E949A112C012C852068222E8301A6
:1021000023FC1BC0832D90E048165906B0F4B7019C
:1021100080E290E00E94B0113A94F4CFF50127FCE0
:10212000859127FE81915F01B70190E00E94B01177
:1021300031103A94F1E04F1A51084114510471F7EB
:10214000E5C0843611F0893639F5F80127FF07C05C
:1021500060817181828193810C5F1F4F08C0608113
:102160007181072E000C880B990B0E5F1F4F2F7685
:10217000722E97FF09C090958095709561957F4F5D
:102180008F4F9F4F2068722E2AE030E0A4010E94FA
:10219000E811A82EA81844C0853729F42F7EB22E46
:1021A0002AE030E025C0F22FF97FBF2E8F36C1F034
:1021B00018F4883579F0B4C0803719F0883721F0E9
:1021C000AFC02F2F2061B22EB4FE0DC08B2D8460C6
:1021D000B82E09C024FF0AC09F2F9660B92E06C0F2
:1021E00028E030E005C020E130E002C020E132E02C
:1021F000F801B7FE07C060817181828193810C5F15
:102200001F4F06C06081718180E090E00E5F1F4F1C
:10221000A4010E94E811A82EA818FB2DFF777F2E9D
:1022200076FE0BC0372D3E7FA51450F474FE0AC015
:1022300072FC08C0372D3E7E05C0BA2C372D03C076
:10224000BA2C01C0B52C34FF0DC0FE01EA0DF11D02
:102250008081803311F4397E09C032FF06C0B39407
:10226000B39404C0832F867809F0B39433FD13C070
:1022700030FF06C05A2CB31418F4530C5B18B32C5F
:10228000B31468F4B70180E290E03C870E94B0117B
:10229000B3943C85F5CFB31410F43B1801C0312C36
:1022A00034FF12C0B70180E390E03C870E94B01178
:1022B0003C8532FF17C031FD03C088E790E002C0C3
:1022C00088E590E0B7010CC0832F867859F031FF84
:1022D00002C08BE201C080E237FD8DE2B70190E0E1
:1022E0000E94B011A51438F4B70180E390E00E9479
:1022F000B0115A94F7CFAA94F401EA0DF11D808130
:10230000B70190E00E94B011A110F5CF332009F47D
:1023100051CEB70180E290E00E94B0113A94F6CF1E
:10232000F7018681978102C08FEF9FEF2C96E2E143
:102330000C946212FC010590615070400110D8F7B6
:10234000809590958E0F9F1F0895FC0161507040FD
:1023500001900110D8F7809590958E0F9F1F0895DA
:102360000F931F93CF93DF93FB01238121FD03C0C4
:102370008FEF9FEF28C022FF16C04681578124812E
:1023800035814217530744F4A081B1819D012F5F2D
:102390003F4F318320838C93268137812F5F3F4FBE
:1023A0003783268310C0EB01092F182F0084F18595
:1023B000E02D0995892BE1F68E819F8101969F83FF
:1023C0008E83812F902FDF91CF911F910F910895D0
:1023D000FA01AA27283051F1203181F1E8946F9356
:1023E0006E7F6E5F7F4F8F4F9F4FAF4FB1E03ED0FC
:1023F000B4E03CD0670F781F891F9A1FA11D680F9A
:10240000791F8A1F911DA11D6A0F711D811D911DCC
:10241000A11D20D009F468943F912AE0269F112441
:102420003019305D3193DEF6CF010895462F4770A5
:10243000405D4193B3E00FD0C9F7F6CF462F4F7000
:10244000405D4A3318F0495D31FD4052419302D05E
:10245000A9F7EACFB4E0A695979587957795679504
:10246000BA95C9F700976105710508959B01AC0104
:102470000A2E06945795479537952795BA95C9F72B
:10248000620F731F841F951FA01D08952F923F9206
:102490004F925F926F927F928F929F92AF92BF9274
:1024A000CF92DF92EF92FF920F931F93CF93DF9320
:1024B000CDB7DEB7CA1BDB0B0FB6F894DEBF0FBE7D
:1024C000CDBF09942A88398848885F846E847D84CA
:1024D0008C849B84AA84B984C884DF80EE80FD80CC
:1024E0000C811B81AA81B981CE0FD11D0FB6F89442
:0E24F000DEBF0FBECDBFED010895F894FFCF03
:1024FE001400000088130000303132333435363783
:10250E0038396162636465662530326C7800253037
:10251E00346C78002530366C78002530386C7800B5
:08252E00256C7500256C6400AA
:00000001FF
